{
  "contractName": "DirhamConverter",
  "abi": [
    {
      "inputs": [
        {
          "internalType": "uint256",
          "name": "amount",
          "type": "uint256"
        }
      ],
      "name": "covnvertToEuro",
      "outputs": [
        {
          "internalType": "uint256",
          "name": "convertedAmount",
          "type": "uint256"
        }
      ],
      "stateMutability": "view",
      "type": "function",
      "constant": true
    },
    {
      "inputs": [
        {
          "internalType": "uint256",
          "name": "amount",
          "type": "uint256"
        }
      ],
      "name": "covnvertToDollar",
      "outputs": [
        {
          "internalType": "uint256",
          "name": "convertedAmount",
          "type": "uint256"
        }
      ],
      "stateMutability": "view",
      "type": "function",
      "constant": true
    },
    {
      "inputs": [
        {
          "internalType": "uint256",
          "name": "amount",
          "type": "uint256"
        }
      ],
      "name": "covnvertToPound",
      "outputs": [
        {
          "internalType": "uint256",
          "name": "convertedAmount",
          "type": "uint256"
        }
      ],
      "stateMutability": "view",
      "type": "function",
      "constant": true
    }
  ],
  "bytecode": "0x60806040526009600055600a600155600860025534801561001f57600080fd5b506102f08061002f6000396000f3fe608060405234801561001057600080fd5b50600436106100415760003560e01c80634448dcc014610046578063720ea90214610076578063d5b62509146100a6575b600080fd5b610060600480360381019061005b919061017a565b6100d6565b60405161006d91906101b6565b60405180910390f35b610090600480360381019061008b919061017a565b6100f9565b60405161009d91906101b6565b60405180910390f35b6100c060048036038101906100bb919061017a565b61011c565b6040516100cd91906101b6565b60405180910390f35b60006064600254836100e89190610200565b6100f29190610289565b9050919050565b600060646001548361010b9190610200565b6101159190610289565b9050919050565b600060646000548361012e9190610200565b6101389190610289565b9050919050565b600080fd5b6000819050919050565b61015781610144565b811461016257600080fd5b50565b6000813590506101748161014e565b92915050565b6000602082840312156101905761018f61013f565b5b600061019e84828501610165565b91505092915050565b6101b081610144565b82525050565b60006020820190506101cb60008301846101a7565b92915050565b7f4e487b7100000000000000000000000000000000000000000000000000000000600052601160045260246000fd5b600061020b82610144565b915061021683610144565b9250817fffffffffffffffffffffffffffffffffffffffffffffffffffffffffffffffff048311821515161561024f5761024e6101d1565b5b828202905092915050565b7f4e487b7100000000000000000000000000000000000000000000000000000000600052601260045260246000fd5b600061029482610144565b915061029f83610144565b9250826102af576102ae61025a565b5b82820490509291505056fea26469706673582212201e4f0bb531fd663c699702a5049107f0bdc0e16ddae20483945fa620108a488f64736f6c634300080d0033",
  "immutableReferences": {},
  "source": "// SPDX-License-Identifier: MIT\r\n// Tells the Solidity compiler to compile only from v0.8.13 to v0.9.0\r\npragma solidity ^0.8.13;\r\n\r\n\r\ncontract DirhamConverter {\r\n    uint euroConversionRate = 9;\r\n    uint dollarConversionRate = 10; \r\n    uint poundConversionRate = 8; \r\n\r\n\r\n\r\n\tfunction covnvertToEuro(uint amount) public view  returns(uint convertedAmount) {\r\n\t\tconvertedAmount =  amount * euroConversionRate /100 ;\r\n\t\treturn convertedAmount;\r\n\t}\r\n\r\n\r\n\r\n\tfunction covnvertToDollar(uint amount) public view  returns(uint convertedAmount) {\r\n\t\tconvertedAmount =  amount * dollarConversionRate / 100 ;\r\n\t\treturn convertedAmount;\r\n\t}\r\n\r\n    function covnvertToPound(uint amount) public view  returns(uint convertedAmount) {\r\n\t\tconvertedAmount =  amount * poundConversionRate /100;\r\n\t\treturn convertedAmount;\r\n\t}\r\n\r\n\r\n\r\n\r\n\t\r\n}\r\n",
  "sourcePath": "c:\\Users\\mK\\Documents\\GitHub\\TruffleEtheriumDemo\\project\\contracts\\DirhamConverter.sol",
  "compiler": {
    "name": "solc",
    "version": "0.8.13+commit.abaa5c0e.Emscripten.clang"
  },
  "schemaVersion": "3.4.14",
  "updatedAt": "2023-08-05T11:44:49.260Z",
  "networkType": "ethereum",
  "devdoc": {
    "kind": "dev",
    "methods": {},
    "version": 1
  },
  "userdoc": {
    "kind": "user",
    "methods": {},
    "version": 1
  }
}